{
  "contractName": "CampaignFactory",
  "abi": [
    {
      "inputs": [
        {
          "internalType": "uint256",
          "name": "",
          "type": "uint256"
        }
      ],
      "name": "deployedCampaigns",
      "outputs": [
        {
          "internalType": "address",
          "name": "",
          "type": "address"
        }
      ],
      "stateMutability": "view",
      "type": "function",
      "constant": true
    },
    {
      "inputs": [
        {
          "internalType": "uint256",
          "name": "minimum",
          "type": "uint256"
        }
      ],
      "name": "createCampaign",
      "outputs": [],
      "stateMutability": "nonpayable",
      "type": "function"
    },
    {
      "inputs": [],
      "name": "getDeployedCampaigns",
      "outputs": [
        {
          "internalType": "address[]",
          "name": "",
          "type": "address[]"
        }
      ],
      "stateMutability": "view",
      "type": "function",
      "constant": true
    },
    {
      "inputs": [],
      "name": "getTestNum",
      "outputs": [
        {
          "internalType": "uint256",
          "name": "",
          "type": "uint256"
        }
      ],
      "stateMutability": "view",
      "type": "function",
      "constant": true
    }
  ],
  "bytecode": "0x6080604052600560015534801561001557600080fd5b50611505806100256000396000f3fe608060405234801561001057600080fd5b506004361061004c5760003560e01c8063339d50a5146100515780634acb9d4f14610081578063505663751461009f578063a3303a75146100bd575b600080fd5b61006b60048036038101906100669190610299565b6100d9565b6040516100789190610307565b60405180910390f35b610089610118565b60405161009691906103e0565b60405180910390f35b6100a76101a6565b6040516100b49190610411565b60405180910390f35b6100d760048036038101906100d29190610299565b6101b0565b005b600081815481106100e957600080fd5b906000526020600020016000915054906101000a900473ffffffffffffffffffffffffffffffffffffffff1681565b6060600080548060200260200160405190810160405280929190818152602001828054801561019c57602002820191906000526020600020905b8160009054906101000a900473ffffffffffffffffffffffffffffffffffffffff1673ffffffffffffffffffffffffffffffffffffffff1681526020019060010190808311610152575b5050505050905090565b6000600154905090565b600081336040516101c090610251565b6101cb92919061042c565b604051809103906000f0801580156101e7573d6000803e3d6000fd5b5090506000819080600181540180825580915050600190039060005260206000200160009091909190916101000a81548173ffffffffffffffffffffffffffffffffffffffff021916908373ffffffffffffffffffffffffffffffffffffffff1602179055505050565b61107a8061045683390190565b600080fd5b6000819050919050565b61027681610263565b811461028157600080fd5b50565b6000813590506102938161026d565b92915050565b6000602082840312156102af576102ae61025e565b5b60006102bd84828501610284565b91505092915050565b600073ffffffffffffffffffffffffffffffffffffffff82169050919050565b60006102f1826102c6565b9050919050565b610301816102e6565b82525050565b600060208201905061031c60008301846102f8565b92915050565b600081519050919050565b600082825260208201905092915050565b6000819050602082019050919050565b610357816102e6565b82525050565b6000610369838361034e565b60208301905092915050565b6000602082019050919050565b600061038d82610322565b610397818561032d565b93506103a28361033e565b8060005b838110156103d35781516103ba888261035d565b97506103c583610375565b9250506001810190506103a6565b5085935050505092915050565b600060208201905081810360008301526103fa8184610382565b905092915050565b61040b81610263565b82525050565b60006020820190506104266000830184610402565b92915050565b60006040820190506104416000830185610402565b61044e60208301846102f8565b939250505056fe60806040523480156200001157600080fd5b506040516200107a3803806200107a83398181016040528101906200003791906200012b565b806000806101000a81548173ffffffffffffffffffffffffffffffffffffffff021916908373ffffffffffffffffffffffffffffffffffffffff16021790555081600181905550505062000172565b600080fd5b6000819050919050565b620000a0816200008b565b8114620000ac57600080fd5b50565b600081519050620000c08162000095565b92915050565b600073ffffffffffffffffffffffffffffffffffffffff82169050919050565b6000620000f382620000c6565b9050919050565b6200010581620000e6565b81146200011157600080fd5b50565b6000815190506200012581620000fa565b92915050565b6000806040838503121562000145576200014462000086565b5b60006200015585828601620000af565b9250506020620001688582860162000114565b9150509250929050565b610ef880620001826000396000f3fe60806040526004361061009c5760003560e01c806381d12c581161006457806381d12c581461018c57806382fde093146101cd5780638a9cfd55146101f8578063aaffadf314610221578063d7bb99ba1461024c578063d7d1bbdb146102565761009c565b806303441006146100a15780630a144391146100ca5780633410452a146101075780634051ddac14610132578063481c6a7514610161575b600080fd5b3480156100ad57600080fd5b506100c860048036038101906100c3919061092e565b61027f565b005b3480156100d657600080fd5b506100f160048036038101906100ec91906109b9565b6103c7565b6040516100fe9190610a01565b60405180910390f35b34801561011357600080fd5b5061011c6103e7565b6040516101299190610a2b565b60405180910390f35b34801561013e57600080fd5b506101476103f4565b604051610158959493929190610a55565b60405180910390f35b34801561016d57600080fd5b5061017661043b565b6040516101839190610aa8565b60405180910390f35b34801561019857600080fd5b506101b360048036038101906101ae919061092e565b61045f565b6040516101c4959493929190610b5c565b60405180910390f35b3480156101d957600080fd5b506101e261055a565b6040516101ef9190610a2b565b60405180910390f35b34801561020457600080fd5b5061021f600480360381019061021a9190610ceb565b610560565b005b34801561022d57600080fd5b5061023661066e565b6040516102439190610a2b565b60405180910390f35b610254610674565b005b34801561026257600080fd5b5061027d6004803603810190610278919061092e565b6106f4565b005b60008054906101000a900473ffffffffffffffffffffffffffffffffffffffff1673ffffffffffffffffffffffffffffffffffffffff163373ffffffffffffffffffffffffffffffffffffffff16146102d757600080fd5b6000600482815481106102ed576102ec610d5a565b5b90600052602060002090600502019050600260035461030c9190610de7565b81600301541161031b57600080fd5b8060020160149054906101000a900460ff161561033757600080fd5b60018160020160146101000a81548160ff0219169083151502179055508060020160009054906101000a900473ffffffffffffffffffffffffffffffffffffffff1673ffffffffffffffffffffffffffffffffffffffff166108fc82600101549081150290604051600060405180830381858888f193505050501580156103c2573d6000803e3d6000fd5b505050565b60026020528060005260406000206000915054906101000a900460ff1681565b6000600480549050905090565b60008060008060006001544760048054905060035460008054906101000a900473ffffffffffffffffffffffffffffffffffffffff16945094509450945094509091929394565b60008054906101000a900473ffffffffffffffffffffffffffffffffffffffff1681565b6004818154811061046f57600080fd5b906000526020600020906005020160009150905080600001805461049290610e47565b80601f01602080910402602001604051908101604052809291908181526020018280546104be90610e47565b801561050b5780601f106104e05761010080835404028352916020019161050b565b820191906000526020600020905b8154815290600101906020018083116104ee57829003601f168201915b5050505050908060010154908060020160009054906101000a900473ffffffffffffffffffffffffffffffffffffffff16908060020160149054906101000a900460ff16908060030154905085565b60035481565b60008054906101000a900473ffffffffffffffffffffffffffffffffffffffff1673ffffffffffffffffffffffffffffffffffffffff163373ffffffffffffffffffffffffffffffffffffffff16146105b857600080fd5b600060046001816001815401808255809150500390600052602060002090600502019050838160000190805190602001906105f4929190610841565b50828160010181905550818160020160006101000a81548173ffffffffffffffffffffffffffffffffffffffff021916908373ffffffffffffffffffffffffffffffffffffffff16021790555060008160020160146101000a81548160ff0219169083151502179055506000816003018190555050505050565b60015481565b600154341161068257600080fd5b6001600260003373ffffffffffffffffffffffffffffffffffffffff1673ffffffffffffffffffffffffffffffffffffffff16815260200190815260200160002060006101000a81548160ff021916908315150217905550600360008154809291906106ed90610e79565b9190505550565b60006004828154811061070a57610709610d5a565b5b90600052602060002090600502019050600260003373ffffffffffffffffffffffffffffffffffffffff1673ffffffffffffffffffffffffffffffffffffffff16815260200190815260200160002060009054906101000a900460ff1661077057600080fd5b8060040160003373ffffffffffffffffffffffffffffffffffffffff1673ffffffffffffffffffffffffffffffffffffffff16815260200190815260200160002060009054906101000a900460ff16156107c957600080fd5b60018160040160003373ffffffffffffffffffffffffffffffffffffffff1673ffffffffffffffffffffffffffffffffffffffff16815260200190815260200160002060006101000a81548160ff02191690831515021790555080600301600081548092919061083890610e79565b91905055505050565b82805461084d90610e47565b90600052602060002090601f01602090048101928261086f57600085556108b6565b82601f1061088857805160ff19168380011785556108b6565b828001600101855582156108b6579182015b828111156108b557825182559160200191906001019061089a565b5b5090506108c391906108c7565b5090565b5b808211156108e05760008160009055506001016108c8565b5090565b6000604051905090565b600080fd5b600080fd5b6000819050919050565b61090b816108f8565b811461091657600080fd5b50565b60008135905061092881610902565b92915050565b600060208284031215610944576109436108ee565b5b600061095284828501610919565b91505092915050565b600073ffffffffffffffffffffffffffffffffffffffff82169050919050565b60006109868261095b565b9050919050565b6109968161097b565b81146109a157600080fd5b50565b6000813590506109b38161098d565b92915050565b6000602082840312156109cf576109ce6108ee565b5b60006109dd848285016109a4565b91505092915050565b60008115159050919050565b6109fb816109e6565b82525050565b6000602082019050610a1660008301846109f2565b92915050565b610a25816108f8565b82525050565b6000602082019050610a406000830184610a1c565b92915050565b610a4f8161097b565b82525050565b600060a082019050610a6a6000830188610a1c565b610a776020830187610a1c565b610a846040830186610a1c565b610a916060830185610a1c565b610a9e6080830184610a46565b9695505050505050565b6000602082019050610abd6000830184610a46565b92915050565b600081519050919050565b600082825260208201905092915050565b60005b83811015610afd578082015181840152602081019050610ae2565b83811115610b0c576000848401525b50505050565b6000601f19601f8301169050919050565b6000610b2e82610ac3565b610b388185610ace565b9350610b48818560208601610adf565b610b5181610b12565b840191505092915050565b600060a0820190508181036000830152610b768188610b23565b9050610b856020830187610a1c565b610b926040830186610a46565b610b9f60608301856109f2565b610bac6080830184610a1c565b9695505050505050565b600080fd5b600080fd5b7f4e487b7100000000000000000000000000000000000000000000000000000000600052604160045260246000fd5b610bf882610b12565b810181811067ffffffffffffffff82111715610c1757610c16610bc0565b5b80604052505050565b6000610c2a6108e4565b9050610c368282610bef565b919050565b600067ffffffffffffffff821115610c5657610c55610bc0565b5b610c5f82610b12565b9050602081019050919050565b82818337600083830152505050565b6000610c8e610c8984610c3b565b610c20565b905082815260208101848484011115610caa57610ca9610bbb565b5b610cb5848285610c6c565b509392505050565b600082601f830112610cd257610cd1610bb6565b5b8135610ce2848260208601610c7b565b91505092915050565b600080600060608486031215610d0457610d036108ee565b5b600084013567ffffffffffffffff811115610d2257610d216108f3565b5b610d2e86828701610cbd565b9350506020610d3f86828701610919565b9250506040610d50868287016109a4565b9150509250925092565b7f4e487b7100000000000000000000000000000000000000000000000000000000600052603260045260246000fd5b7f4e487b7100000000000000000000000000000000000000000000000000000000600052601260045260246000fd5b7f4e487b7100000000000000000000000000000000000000000000000000000000600052601160045260246000fd5b6000610df2826108f8565b9150610dfd836108f8565b925082610e0d57610e0c610d89565b5b828204905092915050565b7f4e487b7100000000000000000000000000000000000000000000000000000000600052602260045260246000fd5b60006002820490506001821680610e5f57607f821691505b60208210811415610e7357610e72610e18565b5b50919050565b6000610e84826108f8565b91507fffffffffffffffffffffffffffffffffffffffffffffffffffffffffffffffff821415610eb757610eb6610db8565b5b60018201905091905056fea2646970667358221220793512e92455446fe8715d04bcb9bba3461e67114cdaeddee6de0b478f505ea164736f6c634300080a0033a264697066735822122016fe700aec46605e218c037ad95ef5aac34cd648dbb2f175326ddc807521d5d364736f6c634300080a0033",
  "immutableReferences": {},
  "source": "// SPDX-License-Identifier: GPL-3.0\npragma solidity ^0.8.0;\n\ncontract CampaignFactory {\n    address[] public deployedCampaigns;\n    uint testNum = 5;\n\n    function createCampaign(uint minimum) public {\n        address newCampaign = address(new Campaign(minimum, msg.sender));\n        deployedCampaigns.push(newCampaign);\n    }\n\n    function getDeployedCampaigns() public view returns (address[] memory) {\n        return deployedCampaigns;\n    }\n\n    function getTestNum() public view returns(uint) {\n        return testNum;\n    }\n}\n\ncontract Campaign {\n    // Struct when defined do not automatically create a local instance\n    // unlike your typical state variables\n    struct Request {\n        string description;\n        uint value;\n        address recipient;\n        bool complete;\n        uint approvalCount;\n        mapping(address => bool) approvals;\n    }\n    \n    address public manager;\n    uint256 public minContribution;\n    mapping(address => bool) public approvers;\n    uint public approversCount;\n    Request[] public requests;\n    \n    modifier restricted {\n        require (msg.sender == manager);\n        _;\n    }\n\n    constructor(uint minimum, address creator) {\n        manager = creator;\n        minContribution = minimum;\n    }\n\n    function contribute() public payable {\n        require(msg.value > minContribution);\n        approvers[msg.sender] = true;\n        approversCount++;\n    }\n\n    function createRequest(string memory description, uint value, address recipient) \n        public restricted {\n            // Use field syntax to clarify parameters\n            // With the key value form, we can change the order without issue\n            Request storage newRequest = requests.push();\n            newRequest.description = description;\n            newRequest.value = value;\n            newRequest.recipient = recipient;\n            newRequest.complete = false;\n            newRequest.approvalCount = 0;\n    }\n\n    function approveRequest(uint index) public {\n        Request storage request = requests[index];\n\n        require(approvers[msg.sender]);\n        require(!request.approvals[msg.sender]);\n\n        request.approvals[msg.sender] = true;\n        request.approvalCount++;\n    }\n\n    function finalizeRequest(uint index) public restricted {\n        Request storage request = requests[index];\n        require(request.approvalCount > (approversCount / 2) );\n        require(!request.complete);\n\n        request.complete = true;\n        payable(request.recipient).transfer(request.value);\n    }\n\n    function getSummary() public view returns(\n        uint, uint, uint, uint, address\n        ) {\n            return (\n                minContribution,\n                address(this).balance,\n                requests.length,\n                approversCount,\n                manager\n            );\n    }\n\n    function getRequestsCount() public view returns (uint) {\n        return requests.length;\n    }\n}\n",
  "sourcePath": "/home/sensor47/kickStarter/contracts/Campaign.sol",
  "compiler": {
    "name": "solc",
    "version": "0.8.10+commit.fc410830.Emscripten.clang"
  },
  "schemaVersion": "3.4.3",
  "updatedAt": "2022-02-11T09:07:32.557Z",
  "networkType": "ethereum",
  "devdoc": {
    "kind": "dev",
    "methods": {},
    "version": 1
  },
  "userdoc": {
    "kind": "user",
    "methods": {},
    "version": 1
  }
}