{
  "contractName": "Campaign",
  "abi": [
    {
      "inputs": [
        {
          "internalType": "uint256",
          "name": "minimum",
          "type": "uint256"
        },
        {
          "internalType": "address",
          "name": "creator",
          "type": "address"
        }
      ],
      "stateMutability": "nonpayable",
      "type": "constructor"
    },
    {
      "inputs": [
        {
          "internalType": "address",
          "name": "",
          "type": "address"
        }
      ],
      "name": "approvers",
      "outputs": [
        {
          "internalType": "bool",
          "name": "",
          "type": "bool"
        }
      ],
      "stateMutability": "view",
      "type": "function",
      "constant": true
    },
    {
      "inputs": [],
      "name": "approversCount",
      "outputs": [
        {
          "internalType": "uint256",
          "name": "",
          "type": "uint256"
        }
      ],
      "stateMutability": "view",
      "type": "function",
      "constant": true
    },
    {
      "inputs": [],
      "name": "manager",
      "outputs": [
        {
          "internalType": "address",
          "name": "",
          "type": "address"
        }
      ],
      "stateMutability": "view",
      "type": "function",
      "constant": true
    },
    {
      "inputs": [],
      "name": "minContribution",
      "outputs": [
        {
          "internalType": "uint256",
          "name": "",
          "type": "uint256"
        }
      ],
      "stateMutability": "view",
      "type": "function",
      "constant": true
    },
    {
      "inputs": [
        {
          "internalType": "uint256",
          "name": "",
          "type": "uint256"
        }
      ],
      "name": "requests",
      "outputs": [
        {
          "internalType": "string",
          "name": "description",
          "type": "string"
        },
        {
          "internalType": "uint256",
          "name": "value",
          "type": "uint256"
        },
        {
          "internalType": "address",
          "name": "recipient",
          "type": "address"
        },
        {
          "internalType": "bool",
          "name": "complete",
          "type": "bool"
        },
        {
          "internalType": "uint256",
          "name": "approvalCount",
          "type": "uint256"
        }
      ],
      "stateMutability": "view",
      "type": "function",
      "constant": true
    },
    {
      "inputs": [],
      "name": "contribute",
      "outputs": [],
      "stateMutability": "payable",
      "type": "function",
      "payable": true
    },
    {
      "inputs": [
        {
          "internalType": "string",
          "name": "description",
          "type": "string"
        },
        {
          "internalType": "uint256",
          "name": "value",
          "type": "uint256"
        },
        {
          "internalType": "address",
          "name": "recipient",
          "type": "address"
        }
      ],
      "name": "createRequest",
      "outputs": [],
      "stateMutability": "nonpayable",
      "type": "function"
    },
    {
      "inputs": [
        {
          "internalType": "uint256",
          "name": "index",
          "type": "uint256"
        }
      ],
      "name": "approveRequest",
      "outputs": [],
      "stateMutability": "nonpayable",
      "type": "function"
    },
    {
      "inputs": [
        {
          "internalType": "uint256",
          "name": "index",
          "type": "uint256"
        }
      ],
      "name": "finalizeRequest",
      "outputs": [],
      "stateMutability": "nonpayable",
      "type": "function"
    }
  ],
  "bytecode": "0x60806040523480156200001157600080fd5b5060405162000f6338038062000f6383398181016040528101906200003791906200012b565b806000806101000a81548173ffffffffffffffffffffffffffffffffffffffff021916908373ffffffffffffffffffffffffffffffffffffffff16021790555081600181905550505062000172565b600080fd5b6000819050919050565b620000a0816200008b565b8114620000ac57600080fd5b50565b600081519050620000c08162000095565b92915050565b600073ffffffffffffffffffffffffffffffffffffffff82169050919050565b6000620000f382620000c6565b9050919050565b6200010581620000e6565b81146200011157600080fd5b50565b6000815190506200012581620000fa565b92915050565b6000806040838503121562000145576200014462000086565b5b60006200015585828601620000af565b9250506020620001688582860162000114565b9150509250929050565b610de180620001826000396000f3fe6080604052600436106100865760003560e01c806382fde0931161005957806382fde0931461015d5780638a9cfd5514610188578063aaffadf3146101b1578063d7bb99ba146101dc578063d7d1bbdb146101e657610086565b8063034410061461008b5780630a144391146100b4578063481c6a75146100f157806381d12c581461011c575b600080fd5b34801561009757600080fd5b506100b260048036038101906100ad919061086a565b61020f565b005b3480156100c057600080fd5b506100db60048036038101906100d691906108f5565b610357565b6040516100e8919061093d565b60405180910390f35b3480156100fd57600080fd5b50610106610377565b6040516101139190610967565b60405180910390f35b34801561012857600080fd5b50610143600480360381019061013e919061086a565b61039b565b604051610154959493929190610a2a565b60405180910390f35b34801561016957600080fd5b50610172610496565b60405161017f9190610a84565b60405180910390f35b34801561019457600080fd5b506101af60048036038101906101aa9190610bd4565b61049c565b005b3480156101bd57600080fd5b506101c66105aa565b6040516101d39190610a84565b60405180910390f35b6101e46105b0565b005b3480156101f257600080fd5b5061020d6004803603810190610208919061086a565b610630565b005b60008054906101000a900473ffffffffffffffffffffffffffffffffffffffff1673ffffffffffffffffffffffffffffffffffffffff163373ffffffffffffffffffffffffffffffffffffffff161461026757600080fd5b60006004828154811061027d5761027c610c43565b5b90600052602060002090600502019050600260035461029c9190610cd0565b8160030154116102ab57600080fd5b8060020160149054906101000a900460ff16156102c757600080fd5b60018160020160146101000a81548160ff0219169083151502179055508060020160009054906101000a900473ffffffffffffffffffffffffffffffffffffffff1673ffffffffffffffffffffffffffffffffffffffff166108fc82600101549081150290604051600060405180830381858888f19350505050158015610352573d6000803e3d6000fd5b505050565b60026020528060005260406000206000915054906101000a900460ff1681565b60008054906101000a900473ffffffffffffffffffffffffffffffffffffffff1681565b600481815481106103ab57600080fd5b90600052602060002090600502016000915090508060000180546103ce90610d30565b80601f01602080910402602001604051908101604052809291908181526020018280546103fa90610d30565b80156104475780601f1061041c57610100808354040283529160200191610447565b820191906000526020600020905b81548152906001019060200180831161042a57829003601f168201915b5050505050908060010154908060020160009054906101000a900473ffffffffffffffffffffffffffffffffffffffff16908060020160149054906101000a900460ff16908060030154905085565b60035481565b60008054906101000a900473ffffffffffffffffffffffffffffffffffffffff1673ffffffffffffffffffffffffffffffffffffffff163373ffffffffffffffffffffffffffffffffffffffff16146104f457600080fd5b6000600460018160018154018082558091505003906000526020600020906005020190508381600001908051906020019061053092919061077d565b50828160010181905550818160020160006101000a81548173ffffffffffffffffffffffffffffffffffffffff021916908373ffffffffffffffffffffffffffffffffffffffff16021790555060008160020160146101000a81548160ff0219169083151502179055506000816003018190555050505050565b60015481565b60015434116105be57600080fd5b6001600260003373ffffffffffffffffffffffffffffffffffffffff1673ffffffffffffffffffffffffffffffffffffffff16815260200190815260200160002060006101000a81548160ff0219169083151502179055506003600081548092919061062990610d62565b9190505550565b60006004828154811061064657610645610c43565b5b90600052602060002090600502019050600260003373ffffffffffffffffffffffffffffffffffffffff1673ffffffffffffffffffffffffffffffffffffffff16815260200190815260200160002060009054906101000a900460ff166106ac57600080fd5b8060040160003373ffffffffffffffffffffffffffffffffffffffff1673ffffffffffffffffffffffffffffffffffffffff16815260200190815260200160002060009054906101000a900460ff161561070557600080fd5b60018160040160003373ffffffffffffffffffffffffffffffffffffffff1673ffffffffffffffffffffffffffffffffffffffff16815260200190815260200160002060006101000a81548160ff02191690831515021790555080600301600081548092919061077490610d62565b91905055505050565b82805461078990610d30565b90600052602060002090601f0160209004810192826107ab57600085556107f2565b82601f106107c457805160ff19168380011785556107f2565b828001600101855582156107f2579182015b828111156107f15782518255916020019190600101906107d6565b5b5090506107ff9190610803565b5090565b5b8082111561081c576000816000905550600101610804565b5090565b6000604051905090565b600080fd5b600080fd5b6000819050919050565b61084781610834565b811461085257600080fd5b50565b6000813590506108648161083e565b92915050565b6000602082840312156108805761087f61082a565b5b600061088e84828501610855565b91505092915050565b600073ffffffffffffffffffffffffffffffffffffffff82169050919050565b60006108c282610897565b9050919050565b6108d2816108b7565b81146108dd57600080fd5b50565b6000813590506108ef816108c9565b92915050565b60006020828403121561090b5761090a61082a565b5b6000610919848285016108e0565b91505092915050565b60008115159050919050565b61093781610922565b82525050565b6000602082019050610952600083018461092e565b92915050565b610961816108b7565b82525050565b600060208201905061097c6000830184610958565b92915050565b600081519050919050565b600082825260208201905092915050565b60005b838110156109bc5780820151818401526020810190506109a1565b838111156109cb576000848401525b50505050565b6000601f19601f8301169050919050565b60006109ed82610982565b6109f7818561098d565b9350610a0781856020860161099e565b610a10816109d1565b840191505092915050565b610a2481610834565b82525050565b600060a0820190508181036000830152610a4481886109e2565b9050610a536020830187610a1b565b610a606040830186610958565b610a6d606083018561092e565b610a7a6080830184610a1b565b9695505050505050565b6000602082019050610a996000830184610a1b565b92915050565b600080fd5b600080fd5b7f4e487b7100000000000000000000000000000000000000000000000000000000600052604160045260246000fd5b610ae1826109d1565b810181811067ffffffffffffffff82111715610b0057610aff610aa9565b5b80604052505050565b6000610b13610820565b9050610b1f8282610ad8565b919050565b600067ffffffffffffffff821115610b3f57610b3e610aa9565b5b610b48826109d1565b9050602081019050919050565b82818337600083830152505050565b6000610b77610b7284610b24565b610b09565b905082815260208101848484011115610b9357610b92610aa4565b5b610b9e848285610b55565b509392505050565b600082601f830112610bbb57610bba610a9f565b5b8135610bcb848260208601610b64565b91505092915050565b600080600060608486031215610bed57610bec61082a565b5b600084013567ffffffffffffffff811115610c0b57610c0a61082f565b5b610c1786828701610ba6565b9350506020610c2886828701610855565b9250506040610c39868287016108e0565b9150509250925092565b7f4e487b7100000000000000000000000000000000000000000000000000000000600052603260045260246000fd5b7f4e487b7100000000000000000000000000000000000000000000000000000000600052601260045260246000fd5b7f4e487b7100000000000000000000000000000000000000000000000000000000600052601160045260246000fd5b6000610cdb82610834565b9150610ce683610834565b925082610cf657610cf5610c72565b5b828204905092915050565b7f4e487b7100000000000000000000000000000000000000000000000000000000600052602260045260246000fd5b60006002820490506001821680610d4857607f821691505b60208210811415610d5c57610d5b610d01565b5b50919050565b6000610d6d82610834565b91507fffffffffffffffffffffffffffffffffffffffffffffffffffffffffffffffff821415610da057610d9f610ca1565b5b60018201905091905056fea264697066735822122063b5fe635f7130ac41ae209591005f42181ad06be25ca726a825d6b0a0f2811a64736f6c634300080a0033",
  "immutableReferences": {},
  "source": "// SPDX-License-Identifier: GPL-3.0\npragma solidity ^0.8.0;\n\ncontract CampaignFactory {\n    address[] public deployedCampaigns;\n    uint testNum = 5;\n\n    function createCampaign(uint minimum) public {\n        address newCampaign = address(new Campaign(minimum, msg.sender));\n        deployedCampaigns.push(newCampaign);\n    }\n\n    function getDeployedCampaigns() public view returns (address[] memory) {\n        return deployedCampaigns;\n    }\n\n    function getTestNum() public view returns(uint) {\n        return testNum;\n    }\n}\n\ncontract Campaign {\n    // Struct when defined do not automatically create a local instance\n    // unlike your typical state variables\n    struct Request {\n        string description;\n        uint value;\n        address recipient;\n        bool complete;\n        uint approvalCount;\n        mapping(address => bool) approvals;\n    }\n    \n    address public manager;\n    uint256 public minContribution;\n    mapping(address => bool) public approvers;\n    uint public approversCount;\n    Request[] public requests;\n    \n    modifier restricted {\n        require (msg.sender == manager);\n        _;\n    }\n\n    constructor(uint minimum, address creator) {\n        manager = creator;\n        minContribution = minimum;\n    }\n\n    function contribute() public payable {\n        require(msg.value > minContribution);\n        approvers[msg.sender] = true;\n        approversCount++;\n    }\n\n    function createRequest(string memory description, uint value, address recipient) \n        public restricted {\n            // Use field syntax to clarify parameters\n            // With the key value form, we can change the order without issue\n            Request storage newRequest = requests.push();\n            newRequest.description = description;\n            newRequest.value = value;\n            newRequest.recipient = recipient;\n            newRequest.complete = false;\n            newRequest.approvalCount = 0;\n    }\n\n    function approveRequest(uint index) public {\n        Request storage request = requests[index];\n\n        require(approvers[msg.sender]);\n        require(!request.approvals[msg.sender]);\n\n        request.approvals[msg.sender] = true;\n        request.approvalCount++;\n    }\n\n    function finalizeRequest(uint index) public restricted {\n        Request storage request = requests[index];\n        require(request.approvalCount > (approversCount / 2) );\n        require(!request.complete);\n\n        request.complete = true;\n        payable(request.recipient).transfer(request.value);\n    }\n}\n",
  "sourcePath": "/home/sensor47/kickStarter/contracts/Campaign.sol",
  "compiler": {
    "name": "solc",
    "version": "0.8.10+commit.fc410830.Emscripten.clang"
  },
  "schemaVersion": "3.4.3",
  "updatedAt": "2022-02-06T06:59:17.774Z",
  "networkType": "ethereum",
  "devdoc": {
    "kind": "dev",
    "methods": {},
    "version": 1
  },
  "userdoc": {
    "kind": "user",
    "methods": {},
    "version": 1
  }
}